{
  "_format": "hh-sol-artifact-1",
  "contractName": "ProxyAdmin",
  "sourceName": "contracts/ProxyAdmin.sol",
  "abi": [
    {
      "inputs": [
        {
          "internalType": "address",
          "name": "initialOwner",
          "type": "address"
        }
      ],
      "stateMutability": "nonpayable",
      "type": "constructor"
    },
    {
      "anonymous": false,
      "inputs": [
        {
          "indexed": true,
          "internalType": "address",
          "name": "previousOwner",
          "type": "address"
        },
        {
          "indexed": true,
          "internalType": "address",
          "name": "newOwner",
          "type": "address"
        }
      ],
      "name": "OwnershipTransferred",
      "type": "event"
    },
    {
      "inputs": [],
      "name": "UPGRADE_INTERFACE_VERSION",
      "outputs": [
        {
          "internalType": "string",
          "name": "",
          "type": "string"
        }
      ],
      "stateMutability": "view",
      "type": "function"
    },
    {
      "inputs": [],
      "name": "owner",
      "outputs": [
        {
          "internalType": "address",
          "name": "",
          "type": "address"
        }
      ],
      "stateMutability": "view",
      "type": "function"
    },
    {
      "inputs": [
        {
          "internalType": "address",
          "name": "newOwner",
          "type": "address"
        }
      ],
      "name": "transferOwnership",
      "outputs": [],
      "stateMutability": "nonpayable",
      "type": "function"
    },
    {
      "inputs": [
        {
          "internalType": "contract ITransparentUpgradeableProxy",
          "name": "proxy",
          "type": "address"
        },
        {
          "internalType": "address",
          "name": "implementation",
          "type": "address"
        },
        {
          "internalType": "bytes",
          "name": "data",
          "type": "bytes"
        }
      ],
      "name": "upgradeAndCall",
      "outputs": [],
      "stateMutability": "payable",
      "type": "function"
    }
  ],
  "bytecode": "0x608060405234801561001057600080fd5b50604051610b98380380610b98833981810160405281019061003291906101a7565b80600073ffffffffffffffffffffffffffffffffffffffff168173ffffffffffffffffffffffffffffffffffffffff16036100a2576040517f08c379a000000000000000000000000000000000000000000000000000000000815260040161009990610257565b60405180910390fd5b806000806101000a81548173ffffffffffffffffffffffffffffffffffffffff021916908373ffffffffffffffffffffffffffffffffffffffff1602179055508073ffffffffffffffffffffffffffffffffffffffff16600073ffffffffffffffffffffffffffffffffffffffff167f8be0079c531659141344cd1fd0a4f28419497f9722a3daafe3b4186f6b6457e060405160405180910390a35050610277565b600080fd5b600073ffffffffffffffffffffffffffffffffffffffff82169050919050565b600061017482610149565b9050919050565b61018481610169565b811461018f57600080fd5b50565b6000815190506101a18161017b565b92915050565b6000602082840312156101bd576101bc610144565b5b60006101cb84828501610192565b91505092915050565b600082825260208201905092915050565b7f4f776e61626c653a20696e697469616c206f776e657220697320746865207a6560008201527f726f206164647265737300000000000000000000000000000000000000000000602082015250565b6000610241602a836101d4565b915061024c826101e5565b604082019050919050565b6000602082019050818103600083015261027081610234565b9050919050565b610912806102866000396000f3fe60806040526004361061003f5760003560e01c80638da5cb5b146100445780639623609d1461006f578063ad3cb1cc1461008b578063f2fde38b146100b6575b600080fd5b34801561005057600080fd5b506100596100df565b604051610066919061043d565b60405180910390f35b6100896004803603810190610084919061061c565b610108565b005b34801561009757600080fd5b506100a0610209565b6040516100ad919061070a565b60405180910390f35b3480156100c257600080fd5b506100dd60048036038101906100d8919061072c565b610242565b005b60008060009054906101000a900473ffffffffffffffffffffffffffffffffffffffff16905090565b60008054906101000a900473ffffffffffffffffffffffffffffffffffffffff1673ffffffffffffffffffffffffffffffffffffffff163373ffffffffffffffffffffffffffffffffffffffff1614610196576040517f08c379a000000000000000000000000000000000000000000000000000000000815260040161018d906107a5565b60405180910390fd5b8273ffffffffffffffffffffffffffffffffffffffff16634f1ef2863484846040518463ffffffff1660e01b81526004016101d292919061081a565b6000604051808303818588803b1580156101eb57600080fd5b505af11580156101ff573d6000803e3d6000fd5b5050505050505050565b6040518060400160405280600581526020017f352e302e3000000000000000000000000000000000000000000000000000000081525081565b60008054906101000a900473ffffffffffffffffffffffffffffffffffffffff1673ffffffffffffffffffffffffffffffffffffffff163373ffffffffffffffffffffffffffffffffffffffff16146102d0576040517f08c379a00000000000000000000000000000000000000000000000000000000081526004016102c7906107a5565b60405180910390fd5b600073ffffffffffffffffffffffffffffffffffffffff168173ffffffffffffffffffffffffffffffffffffffff160361033f576040517f08c379a0000000000000000000000000000000000000000000000000000000008152600401610336906108bc565b60405180910390fd5b8073ffffffffffffffffffffffffffffffffffffffff1660008054906101000a900473ffffffffffffffffffffffffffffffffffffffff1673ffffffffffffffffffffffffffffffffffffffff167f8be0079c531659141344cd1fd0a4f28419497f9722a3daafe3b4186f6b6457e060405160405180910390a3806000806101000a81548173ffffffffffffffffffffffffffffffffffffffff021916908373ffffffffffffffffffffffffffffffffffffffff16021790555050565b600073ffffffffffffffffffffffffffffffffffffffff82169050919050565b6000610427826103fc565b9050919050565b6104378161041c565b82525050565b6000602082019050610452600083018461042e565b92915050565b6000604051905090565b600080fd5b600080fd5b60006104778261041c565b9050919050565b6104878161046c565b811461049257600080fd5b50565b6000813590506104a48161047e565b92915050565b6104b38161041c565b81146104be57600080fd5b50565b6000813590506104d0816104aa565b92915050565b600080fd5b600080fd5b6000601f19601f8301169050919050565b7f4e487b7100000000000000000000000000000000000000000000000000000000600052604160045260246000fd5b610529826104e0565b810181811067ffffffffffffffff82111715610548576105476104f1565b5b80604052505050565b600061055b610458565b90506105678282610520565b919050565b600067ffffffffffffffff821115610587576105866104f1565b5b610590826104e0565b9050602081019050919050565b82818337600083830152505050565b60006105bf6105ba8461056c565b610551565b9050828152602081018484840111156105db576105da6104db565b5b6105e684828561059d565b509392505050565b600082601f830112610603576106026104d6565b5b81356106138482602086016105ac565b91505092915050565b60008060006060848603121561063557610634610462565b5b600061064386828701610495565b9350506020610654868287016104c1565b925050604084013567ffffffffffffffff81111561067557610674610467565b5b610681868287016105ee565b9150509250925092565b600081519050919050565b600082825260208201905092915050565b60005b838110156106c55780820151818401526020810190506106aa565b60008484015250505050565b60006106dc8261068b565b6106e68185610696565b93506106f68185602086016106a7565b6106ff816104e0565b840191505092915050565b6000602082019050818103600083015261072481846106d1565b905092915050565b60006020828403121561074257610741610462565b5b6000610750848285016104c1565b91505092915050565b7f4f776e61626c653a2063616c6c6572206973206e6f7420746865206f776e6572600082015250565b600061078f602083610696565b915061079a82610759565b602082019050919050565b600060208201905081810360008301526107be81610782565b9050919050565b600081519050919050565b600082825260208201905092915050565b60006107ec826107c5565b6107f681856107d0565b93506108068185602086016106a7565b61080f816104e0565b840191505092915050565b600060408201905061082f600083018561042e565b818103602083015261084181846107e1565b90509392505050565b7f4f776e61626c653a206e6577206f776e657220697320746865207a65726f206160008201527f6464726573730000000000000000000000000000000000000000000000000000602082015250565b60006108a6602683610696565b91506108b18261084a565b604082019050919050565b600060208201905081810360008301526108d581610899565b905091905056fea2646970667358221220dcaee6e9b8edd29139a224d016ad3e4706271177e30504832391a5504375dd2064736f6c63430008140033",
  "linkReferences": {},
  "deployedLinkReferences": {}
}