{
  "_format": "hh-sol-artifact-1",
  "contractName": "MyContractV2",
  "sourceName": "contracts/MyContractV2.sol",
  "abi": [
    {
      "inputs": [],
      "name": "incrementValue",
      "outputs": [],
      "stateMutability": "nonpayable",
      "type": "function"
    },
    {
      "inputs": [
        {
          "internalType": "uint256",
          "name": "_value",
          "type": "uint256"
        }
      ],
      "name": "setValue",
      "outputs": [],
      "stateMutability": "nonpayable",
      "type": "function"
    },
    {
      "inputs": [],
      "name": "value",
      "outputs": [
        {
          "internalType": "uint256",
          "name": "",
          "type": "uint256"
        }
      ],
      "stateMutability": "view",
      "type": "function"
    }
  ],
  "bytecode": "0x608060405234801561001057600080fd5b506101f2806100206000396000f3fe608060405234801561001057600080fd5b50600436106100415760003560e01c80633bfd7fd3146100465780633fa4f24514610050578063552410771461006e575b600080fd5b61004e61008a565b005b6100586100a3565b60405161006591906100cc565b60405180910390f35b61008860048036038101906100839190610118565b6100a9565b005b60008081548092919061009c90610174565b9190505550565b60005481565b8060008190555050565b6000819050919050565b6100c6816100b3565b82525050565b60006020820190506100e160008301846100bd565b92915050565b600080fd5b6100f5816100b3565b811461010057600080fd5b50565b600081359050610112816100ec565b92915050565b60006020828403121561012e5761012d6100e7565b5b600061013c84828501610103565b91505092915050565b7f4e487b7100000000000000000000000000000000000000000000000000000000600052601160045260246000fd5b600061017f826100b3565b91507fffffffffffffffffffffffffffffffffffffffffffffffffffffffffffffffff82036101b1576101b0610145565b5b60018201905091905056fea26469706673582212204e41c7265edc80116ea04756eea406d03d1a6a7d8ca36f796c5f1333191384d964736f6c63430008140033",
  "linkReferences": {},
  "deployedLinkReferences": {}
}